{
  "address": "0xA33cfb48338450AEcc3e7dA69E7F99AC923cfc28",
  "abi": [
    {
      "inputs": [
        {
          "internalType": "address",
          "name": "token",
          "type": "address"
        }
      ],
      "name": "tokenName",
      "outputs": [
        {
          "internalType": "string",
          "name": "",
          "type": "string"
        }
      ],
      "stateMutability": "view",
      "type": "function"
    },
    {
      "inputs": [
        {
          "internalType": "address",
          "name": "token",
          "type": "address"
        }
      ],
      "name": "tokenSymbol",
      "outputs": [
        {
          "internalType": "string",
          "name": "",
          "type": "string"
        }
      ],
      "stateMutability": "view",
      "type": "function"
    }
  ],
  "transactionHash": "0x71fe8d4c123b3ea4fe21e11e3f746aabe3cd283b03f448ecba8ba4a526c0fc3c",
  "args": [],
  "solcInputHash": "5b5347f8106040999d6b1526e14adcd6",
  "bytecode": "0x6107df61003a600b82828239805160001a60731461002d57634e487b7160e01b600052600060045260246000fd5b30600052607381538281f3fe73000000000000000000000000000000000000000030146080604052600436106100405760003560e01c8063033b9b4f14610045578063e54f75221461006e575b600080fd5b6100586100533660046105ad565b610081565b60405161006591906106b1565b60405180910390f35b61005861007c3660046105ad565b6100e7565b60606000610096836395d89b4160e01b6100f8565b90508051600014156100e157604080516001600160a01b03851660208201526100da91016040516020818303038152906040528051906020012060001c6020610225565b9392505050565b92915050565b60606000610096836306fdde0360e01b5b60408051600481526024810182526020810180516001600160e01b03166001600160e01b03198516179052905160609160009182916001600160a01b038716916101429190610695565b600060405180830381855afa9150503d806000811461017d576040519150601f19603f3d011682016040523d82523d6000602084013e610182565b606091505b509150915081158061019357508051155b156101b15760405180602001604052806000815250925050506100e1565b8051602014156101e6576000818060200190518101906101d191906105d4565b90506101dc8161040b565b93505050506100e1565b60408151111561020d578080602001905181019061020491906105ec565b925050506100e1565b50506040805160208101909152600081529392505050565b606060006102348360026106fc565b61023f9060026106e4565b67ffffffffffffffff81111561026557634e487b7160e01b600052604160045260246000fd5b6040519080825280601f01601f19166020018201604052801561028f576020820181803683370190505b509050600360fc1b816000815181106102b857634e487b7160e01b600052603260045260246000fd5b60200101906001600160f81b031916908160001a905350600f60fb1b816001815181106102f557634e487b7160e01b600052603260045260246000fd5b60200101906001600160f81b031916908160001a90535060006103198460026106fc565b6103249060016106e4565b90505b60018111156103b8576f181899199a1a9b1b9c1cb0b131b232b360811b85600f166010811061036657634e487b7160e01b600052603260045260246000fd5b1a60f81b82828151811061038a57634e487b7160e01b600052603260045260246000fd5b60200101906001600160f81b031916908160001a90535060049490941c936103b18161074b565b9050610327565b5083156100da5760405162461bcd60e51b815260206004820181905260248201527f537472696e67733a20686578206c656e67746820696e73756666696369656e74604482015260640160405180910390fd5b604080516020808252818301909252606091600091906020820181803683370190505090506000805b60208110156104ce57600085826020811061045f57634e487b7160e01b600052603260045260246000fd5b1a60f81b90506001600160f81b03198116156104bb578084848151811061049657634e487b7160e01b600052603260045260246000fd5b60200101906001600160f81b031916908160001a905350826104b781610762565b9350505b50806104c681610762565b915050610434565b5060008167ffffffffffffffff8111156104f857634e487b7160e01b600052604160045260246000fd5b6040519080825280601f01601f191660200182016040528015610522576020820181803683370190505b50905060005b828110156105a45783818151811061055057634e487b7160e01b600052603260045260246000fd5b602001015160f81c60f81b82828151811061057b57634e487b7160e01b600052603260045260246000fd5b60200101906001600160f81b031916908160001a9053508061059c81610762565b915050610528565b50949350505050565b6000602082840312156105be578081fd5b81356001600160a01b03811681146100da578182fd5b6000602082840312156105e5578081fd5b5051919050565b6000602082840312156105fd578081fd5b815167ffffffffffffffff80821115610614578283fd5b818401915084601f830112610627578283fd5b81518181111561063957610639610793565b604051601f8201601f19908116603f0116810190838211818310171561066157610661610793565b81604052828152876020848701011115610679578586fd5b61068a83602083016020880161071b565b979650505050505050565b600082516106a781846020870161071b565b9190910192915050565b60208152600082518060208401526106d081604085016020870161071b565b601f01601f19169190910160400192915050565b600082198211156106f7576106f761077d565b500190565b60008160001904831182151516156107165761071661077d565b500290565b60005b8381101561073657818101518382015260200161071e565b83811115610745576000848401525b50505050565b60008161075a5761075a61077d565b506000190190565b60006000198214156107765761077661077d565b5060010190565b634e487b7160e01b600052601160045260246000fd5b634e487b7160e01b600052604160045260246000fdfea264697066735822122093f7d19c2c4827ed686458fa36da1156512a7e26da286b68057e5704bd6733c764736f6c63430008040033",
  "devdoc": {
    "kind": "dev",
    "methods": {},
    "version": 1
  },
  "userdoc": {
    "kind": "user",
    "methods": {},
    "version": 1
  },
  "storageLayout": {
    "storage": [],
    "types": null
  }
}