{
  "address": "0xA33cfb48338450AEcc3e7dA69E7F99AC923cfc28",
  "abi": [
    {
      "inputs": [
        {
          "internalType": "contract IERC20",
          "name": "stakingAsset_",
          "type": "address"
        },
        {
          "internalType": "contract IERC20",
          "name": "rewardAsset_",
          "type": "address"
        }
      ],
      "stateMutability": "nonpayable",
      "type": "constructor"
    },
    {
      "inputs": [],
      "name": "Closed",
      "type": "error"
    },
    {
      "inputs": [],
      "name": "Emergency",
      "type": "error"
    },
    {
      "inputs": [],
      "name": "Finished",
      "type": "error"
    },
    {
      "inputs": [],
      "name": "InvalidAmount",
      "type": "error"
    },
    {
      "inputs": [
        {
          "internalType": "uint256",
          "name": "principal",
          "type": "uint256"
        }
      ],
      "name": "NotEnoughPrincipal",
      "type": "error"
    },
    {
      "inputs": [],
      "name": "OnlyManager",
      "type": "error"
    },
    {
      "inputs": [],
      "name": "StakingNotInitiated",
      "type": "error"
    },
    {
      "inputs": [],
      "name": "ZeroPrincipal",
      "type": "error"
    },
    {
      "inputs": [],
      "name": "ZeroReward",
      "type": "error"
    },
    {
      "anonymous": false,
      "inputs": [
        {
          "indexed": true,
          "internalType": "address",
          "name": "owner",
          "type": "address"
        },
        {
          "indexed": true,
          "internalType": "address",
          "name": "spender",
          "type": "address"
        },
        {
          "indexed": false,
          "internalType": "uint256",
          "name": "value",
          "type": "uint256"
        }
      ],
      "name": "Approval",
      "type": "event"
    },
    {
      "anonymous": false,
      "inputs": [
        {
          "indexed": true,
          "internalType": "address",
          "name": "user",
          "type": "address"
        },
        {
          "indexed": false,
          "internalType": "uint256",
          "name": "reward",
          "type": "uint256"
        },
        {
          "indexed": false,
          "internalType": "uint256",
          "name": "rewardLeft",
          "type": "uint256"
        }
      ],
      "name": "Claim",
      "type": "event"
    },
    {
      "anonymous": false,
      "inputs": [
        {
          "indexed": false,
          "internalType": "address",
          "name": "admin",
          "type": "address"
        },
        {
          "indexed": false,
          "internalType": "bool",
          "name": "close",
          "type": "bool"
        }
      ],
      "name": "ClosePool",
      "type": "event"
    },
    {
      "anonymous": false,
      "inputs": [
        {
          "indexed": true,
          "internalType": "address",
          "name": "delegator",
          "type": "address"
        },
        {
          "indexed": true,
          "internalType": "address",
          "name": "fromDelegate",
          "type": "address"
        },
        {
          "indexed": true,
          "internalType": "address",
          "name": "toDelegate",
          "type": "address"
        }
      ],
      "name": "DelegateChanged",
      "type": "event"
    },
    {
      "anonymous": false,
      "inputs": [
        {
          "indexed": true,
          "internalType": "address",
          "name": "delegate",
          "type": "address"
        },
        {
          "indexed": false,
          "internalType": "uint256",
          "name": "previousBalance",
          "type": "uint256"
        },
        {
          "indexed": false,
          "internalType": "uint256",
          "name": "newBalance",
          "type": "uint256"
        }
      ],
      "name": "DelegateVotesChanged",
      "type": "event"
    },
    {
      "anonymous": false,
      "inputs": [
        {
          "indexed": true,
          "internalType": "address",
          "name": "manager",
          "type": "address"
        },
        {
          "indexed": false,
          "internalType": "uint256",
          "name": "duration",
          "type": "uint256"
        },
        {
          "indexed": false,
          "internalType": "uint256",
          "name": "rewardPerSecond",
          "type": "uint256"
        }
      ],
      "name": "ExtendPool",
      "type": "event"
    },
    {
      "anonymous": false,
      "inputs": [
        {
          "indexed": false,
          "internalType": "uint256",
          "name": "rewardPerSecond",
          "type": "uint256"
        },
        {
          "indexed": false,
          "internalType": "uint256",
          "name": "startTimestamp",
          "type": "uint256"
        },
        {
          "indexed": false,
          "internalType": "uint256",
          "name": "endTimestamp",
          "type": "uint256"
        }
      ],
      "name": "InitPool",
      "type": "event"
    },
    {
      "anonymous": false,
      "inputs": [
        {
          "indexed": true,
          "internalType": "address",
          "name": "previousOwner",
          "type": "address"
        },
        {
          "indexed": true,
          "internalType": "address",
          "name": "newOwner",
          "type": "address"
        }
      ],
      "name": "OwnershipTransferred",
      "type": "event"
    },
    {
      "anonymous": false,
      "inputs": [
        {
          "indexed": false,
          "internalType": "address",
          "name": "manager",
          "type": "address"
        },
        {
          "indexed": false,
          "internalType": "uint256",
          "name": "residueAmount",
          "type": "uint256"
        }
      ],
      "name": "RetrieveResidue",
      "type": "event"
    },
    {
      "anonymous": false,
      "inputs": [
        {
          "indexed": false,
          "internalType": "address",
          "name": "requester",
          "type": "address"
        },
        {
          "indexed": false,
          "internalType": "address",
          "name": "manager",
          "type": "address"
        }
      ],
      "name": "RevokeManager",
      "type": "event"
    },
    {
      "anonymous": false,
      "inputs": [
        {
          "indexed": false,
          "internalType": "address",
          "name": "admin",
          "type": "address"
        },
        {
          "indexed": false,
          "internalType": "bool",
          "name": "emergency",
          "type": "bool"
        }
      ],
      "name": "SetEmergency",
      "type": "event"
    },
    {
      "anonymous": false,
      "inputs": [
        {
          "indexed": false,
          "internalType": "address",
          "name": "admin",
          "type": "address"
        },
        {
          "indexed": false,
          "internalType": "address",
          "name": "manager",
          "type": "address"
        }
      ],
      "name": "SetManager",
      "type": "event"
    },
    {
      "anonymous": false,
      "inputs": [
        {
          "indexed": true,
          "internalType": "address",
          "name": "user",
          "type": "address"
        },
        {
          "indexed": false,
          "internalType": "uint256",
          "name": "amount",
          "type": "uint256"
        },
        {
          "indexed": false,
          "internalType": "uint256",
          "name": "userIndex",
          "type": "uint256"
        },
        {
          "indexed": false,
          "internalType": "uint256",
          "name": "userPrincipal",
          "type": "uint256"
        }
      ],
      "name": "Stake",
      "type": "event"
    },
    {
      "anonymous": false,
      "inputs": [
        {
          "indexed": true,
          "internalType": "address",
          "name": "from",
          "type": "address"
        },
        {
          "indexed": true,
          "internalType": "address",
          "name": "to",
          "type": "address"
        },
        {
          "indexed": false,
          "internalType": "uint256",
          "name": "value",
          "type": "uint256"
        }
      ],
      "name": "Transfer",
      "type": "event"
    },
    {
      "anonymous": false,
      "inputs": [
        {
          "indexed": true,
          "internalType": "address",
          "name": "user",
          "type": "address"
        },
        {
          "indexed": false,
          "internalType": "uint256",
          "name": "amount",
          "type": "uint256"
        },
        {
          "indexed": false,
          "internalType": "uint256",
          "name": "userIndex",
          "type": "uint256"
        },
        {
          "indexed": false,
          "internalType": "uint256",
          "name": "userPrincipal",
          "type": "uint256"
        }
      ],
      "name": "Withdraw",
      "type": "event"
    },
    {
      "inputs": [],
      "name": "DOMAIN_SEPARATOR",
      "outputs": [
        {
          "internalType": "bytes32",
          "name": "",
          "type": "bytes32"
        }
      ],
      "stateMutability": "view",
      "type": "function"
    },
    {
      "inputs": [
        {
          "internalType": "address",
          "name": "owner",
          "type": "address"
        },
        {
          "internalType": "address",
          "name": "spender",
          "type": "address"
        }
      ],
      "name": "allowance",
      "outputs": [
        {
          "internalType": "uint256",
          "name": "",
          "type": "uint256"
        }
      ],
      "stateMutability": "view",
      "type": "function"
    },
    {
      "inputs": [
        {
          "internalType": "address",
          "name": "spender",
          "type": "address"
        },
        {
          "internalType": "uint256",
          "name": "amount",
          "type": "uint256"
        }
      ],
      "name": "approve",
      "outputs": [
        {
          "internalType": "bool",
          "name": "",
          "type": "bool"
        }
      ],
      "stateMutability": "nonpayable",
      "type": "function"
    },
    {
      "inputs": [
        {
          "internalType": "address",
          "name": "account",
          "type": "address"
        }
      ],
      "name": "balanceOf",
      "outputs": [
        {
          "internalType": "uint256",
          "name": "",
          "type": "uint256"
        }
      ],
      "stateMutability": "view",
      "type": "function"
    },
    {
      "inputs": [
        {
          "internalType": "address",
          "name": "account",
          "type": "address"
        },
        {
          "internalType": "uint32",
          "name": "pos",
          "type": "uint32"
        }
      ],
      "name": "checkpoints",
      "outputs": [
        {
          "components": [
            {
              "internalType": "uint32",
              "name": "fromBlock",
              "type": "uint32"
            },
            {
              "internalType": "uint224",
              "name": "votes",
              "type": "uint224"
            }
          ],
          "internalType": "struct ERC20Votes.Checkpoint",
          "name": "",
          "type": "tuple"
        }
      ],
      "stateMutability": "view",
      "type": "function"
    },
    {
      "inputs": [],
      "name": "claim",
      "outputs": [],
      "stateMutability": "nonpayable",
      "type": "function"
    },
    {
      "inputs": [],
      "name": "closePool",
      "outputs": [],
      "stateMutability": "nonpayable",
      "type": "function"
    },
    {
      "inputs": [],
      "name": "decimals",
      "outputs": [
        {
          "internalType": "uint8",
          "name": "",
          "type": "uint8"
        }
      ],
      "stateMutability": "view",
      "type": "function"
    },
    {
      "inputs": [
        {
          "internalType": "address",
          "name": "spender",
          "type": "address"
        },
        {
          "internalType": "uint256",
          "name": "subtractedValue",
          "type": "uint256"
        }
      ],
      "name": "decreaseAllowance",
      "outputs": [
        {
          "internalType": "bool",
          "name": "",
          "type": "bool"
        }
      ],
      "stateMutability": "nonpayable",
      "type": "function"
    },
    {
      "inputs": [
        {
          "internalType": "address",
          "name": "delegatee",
          "type": "address"
        }
      ],
      "name": "delegate",
      "outputs": [],
      "stateMutability": "nonpayable",
      "type": "function"
    },
    {
      "inputs": [
        {
          "internalType": "address",
          "name": "delegatee",
          "type": "address"
        },
        {
          "internalType": "uint256",
          "name": "nonce",
          "type": "uint256"
        },
        {
          "internalType": "uint256",
          "name": "expiry",
          "type": "uint256"
        },
        {
          "internalType": "uint8",
          "name": "v",
          "type": "uint8"
        },
        {
          "internalType": "bytes32",
          "name": "r",
          "type": "bytes32"
        },
        {
          "internalType": "bytes32",
          "name": "s",
          "type": "bytes32"
        }
      ],
      "name": "delegateBySig",
      "outputs": [],
      "stateMutability": "nonpayable",
      "type": "function"
    },
    {
      "inputs": [
        {
          "internalType": "address",
          "name": "account",
          "type": "address"
        }
      ],
      "name": "delegates",
      "outputs": [
        {
          "internalType": "address",
          "name": "",
          "type": "address"
        }
      ],
      "stateMutability": "view",
      "type": "function"
    },
    {
      "inputs": [
        {
          "internalType": "uint256",
          "name": "rewardPerSecond",
          "type": "uint256"
        },
        {
          "internalType": "uint256",
          "name": "duration",
          "type": "uint256"
        }
      ],
      "name": "extendPool",
      "outputs": [],
      "stateMutability": "nonpayable",
      "type": "function"
    },
    {
      "inputs": [
        {
          "internalType": "uint256",
          "name": "blockNumber",
          "type": "uint256"
        }
      ],
      "name": "getPastTotalSupply",
      "outputs": [
        {
          "internalType": "uint256",
          "name": "",
          "type": "uint256"
        }
      ],
      "stateMutability": "view",
      "type": "function"
    },
    {
      "inputs": [
        {
          "internalType": "address",
          "name": "account",
          "type": "address"
        },
        {
          "internalType": "uint256",
          "name": "blockNumber",
          "type": "uint256"
        }
      ],
      "name": "getPastVotes",
      "outputs": [
        {
          "internalType": "uint256",
          "name": "",
          "type": "uint256"
        }
      ],
      "stateMutability": "view",
      "type": "function"
    },
    {
      "inputs": [],
      "name": "getPoolData",
      "outputs": [
        {
          "internalType": "uint256",
          "name": "rewardPerSecond",
          "type": "uint256"
        },
        {
          "internalType": "uint256",
          "name": "rewardIndex",
          "type": "uint256"
        },
        {
          "internalType": "uint256",
          "name": "startTimestamp",
          "type": "uint256"
        },
        {
          "internalType": "uint256",
          "name": "endTimestamp",
          "type": "uint256"
        },
        {
          "internalType": "uint256",
          "name": "totalPrincipal",
          "type": "uint256"
        },
        {
          "internalType": "uint256",
          "name": "lastUpdateTimestamp",
          "type": "uint256"
        }
      ],
      "stateMutability": "view",
      "type": "function"
    },
    {
      "inputs": [],
      "name": "getRewardIndex",
      "outputs": [
        {
          "internalType": "uint256",
          "name": "",
          "type": "uint256"
        }
      ],
      "stateMutability": "view",
      "type": "function"
    },
    {
      "inputs": [
        {
          "internalType": "address",
          "name": "user",
          "type": "address"
        }
      ],
      "name": "getUserData",
      "outputs": [
        {
          "internalType": "uint256",
          "name": "userIndex",
          "type": "uint256"
        },
        {
          "internalType": "uint256",
          "name": "userReward",
          "type": "uint256"
        },
        {
          "internalType": "uint256",
          "name": "userPrincipal",
          "type": "uint256"
        }
      ],
      "stateMutability": "view",
      "type": "function"
    },
    {
      "inputs": [
        {
          "internalType": "address",
          "name": "user",
          "type": "address"
        }
      ],
      "name": "getUserReward",
      "outputs": [
        {
          "internalType": "uint256",
          "name": "",
          "type": "uint256"
        }
      ],
      "stateMutability": "view",
      "type": "function"
    },
    {
      "inputs": [
        {
          "internalType": "address",
          "name": "account",
          "type": "address"
        }
      ],
      "name": "getVotes",
      "outputs": [
        {
          "internalType": "uint256",
          "name": "",
          "type": "uint256"
        }
      ],
      "stateMutability": "view",
      "type": "function"
    },
    {
      "inputs": [
        {
          "internalType": "address",
          "name": "spender",
          "type": "address"
        },
        {
          "internalType": "uint256",
          "name": "addedValue",
          "type": "uint256"
        }
      ],
      "name": "increaseAllowance",
      "outputs": [
        {
          "internalType": "bool",
          "name": "",
          "type": "bool"
        }
      ],
      "stateMutability": "nonpayable",
      "type": "function"
    },
    {
      "inputs": [
        {
          "internalType": "uint256",
          "name": "rewardPerSecond",
          "type": "uint256"
        },
        {
          "internalType": "uint256",
          "name": "startTimestamp",
          "type": "uint256"
        },
        {
          "internalType": "uint256",
          "name": "duration",
          "type": "uint256"
        }
      ],
      "name": "initNewPool",
      "outputs": [],
      "stateMutability": "nonpayable",
      "type": "function"
    },
    {
      "inputs": [
        {
          "internalType": "address",
          "name": "addr",
          "type": "address"
        }
      ],
      "name": "isManager",
      "outputs": [
        {
          "internalType": "bool",
          "name": "",
          "type": "bool"
        }
      ],
      "stateMutability": "view",
      "type": "function"
    },
    {
      "inputs": [],
      "name": "name",
      "outputs": [
        {
          "internalType": "string",
          "name": "",
          "type": "string"
        }
      ],
      "stateMutability": "view",
      "type": "function"
    },
    {
      "inputs": [
        {
          "internalType": "address",
          "name": "owner",
          "type": "address"
        }
      ],
      "name": "nonces",
      "outputs": [
        {
          "internalType": "uint256",
          "name": "",
          "type": "uint256"
        }
      ],
      "stateMutability": "view",
      "type": "function"
    },
    {
      "inputs": [
        {
          "internalType": "address",
          "name": "account",
          "type": "address"
        }
      ],
      "name": "numCheckpoints",
      "outputs": [
        {
          "internalType": "uint32",
          "name": "",
          "type": "uint32"
        }
      ],
      "stateMutability": "view",
      "type": "function"
    },
    {
      "inputs": [],
      "name": "owner",
      "outputs": [
        {
          "internalType": "address",
          "name": "",
          "type": "address"
        }
      ],
      "stateMutability": "view",
      "type": "function"
    },
    {
      "inputs": [
        {
          "internalType": "address",
          "name": "owner",
          "type": "address"
        },
        {
          "internalType": "address",
          "name": "spender",
          "type": "address"
        },
        {
          "internalType": "uint256",
          "name": "value",
          "type": "uint256"
        },
        {
          "internalType": "uint256",
          "name": "deadline",
          "type": "uint256"
        },
        {
          "internalType": "uint8",
          "name": "v",
          "type": "uint8"
        },
        {
          "internalType": "bytes32",
          "name": "r",
          "type": "bytes32"
        },
        {
          "internalType": "bytes32",
          "name": "s",
          "type": "bytes32"
        }
      ],
      "name": "permit",
      "outputs": [],
      "stateMutability": "nonpayable",
      "type": "function"
    },
    {
      "inputs": [
        {
          "internalType": "address",
          "name": "addr",
          "type": "address"
        }
      ],
      "name": "renounceManager",
      "outputs": [],
      "stateMutability": "nonpayable",
      "type": "function"
    },
    {
      "inputs": [],
      "name": "renounceOwnership",
      "outputs": [],
      "stateMutability": "nonpayable",
      "type": "function"
    },
    {
      "inputs": [],
      "name": "retrieveResidue",
      "outputs": [],
      "stateMutability": "nonpayable",
      "type": "function"
    },
    {
      "inputs": [
        {
          "internalType": "address",
          "name": "addr",
          "type": "address"
        }
      ],
      "name": "revokeManager",
      "outputs": [],
      "stateMutability": "nonpayable",
      "type": "function"
    },
    {
      "inputs": [],
      "name": "rewardAsset",
      "outputs": [
        {
          "internalType": "contract IERC20",
          "name": "",
          "type": "address"
        }
      ],
      "stateMutability": "view",
      "type": "function"
    },
    {
      "inputs": [
        {
          "internalType": "bool",
          "name": "stop",
          "type": "bool"
        }
      ],
      "name": "setEmergency",
      "outputs": [],
      "stateMutability": "nonpayable",
      "type": "function"
    },
    {
      "inputs": [
        {
          "internalType": "address",
          "name": "addr",
          "type": "address"
        }
      ],
      "name": "setManager",
      "outputs": [],
      "stateMutability": "nonpayable",
      "type": "function"
    },
    {
      "inputs": [
        {
          "internalType": "uint256",
          "name": "amount",
          "type": "uint256"
        }
      ],
      "name": "stake",
      "outputs": [],
      "stateMutability": "nonpayable",
      "type": "function"
    },
    {
      "inputs": [],
      "name": "stakingAsset",
      "outputs": [
        {
          "internalType": "contract IERC20",
          "name": "",
          "type": "address"
        }
      ],
      "stateMutability": "view",
      "type": "function"
    },
    {
      "inputs": [],
      "name": "symbol",
      "outputs": [
        {
          "internalType": "string",
          "name": "",
          "type": "string"
        }
      ],
      "stateMutability": "view",
      "type": "function"
    },
    {
      "inputs": [],
      "name": "totalSupply",
      "outputs": [
        {
          "internalType": "uint256",
          "name": "",
          "type": "uint256"
        }
      ],
      "stateMutability": "view",
      "type": "function"
    },
    {
      "inputs": [
        {
          "internalType": "address",
          "name": "recipient",
          "type": "address"
        },
        {
          "internalType": "uint256",
          "name": "amount",
          "type": "uint256"
        }
      ],
      "name": "transfer",
      "outputs": [
        {
          "internalType": "bool",
          "name": "",
          "type": "bool"
        }
      ],
      "stateMutability": "nonpayable",
      "type": "function"
    },
    {
      "inputs": [
        {
          "internalType": "address",
          "name": "sender",
          "type": "address"
        },
        {
          "internalType": "address",
          "name": "recipient",
          "type": "address"
        },
        {
          "internalType": "uint256",
          "name": "amount",
          "type": "uint256"
        }
      ],
      "name": "transferFrom",
      "outputs": [
        {
          "internalType": "bool",
          "name": "",
          "type": "bool"
        }
      ],
      "stateMutability": "nonpayable",
      "type": "function"
    },
    {
      "inputs": [
        {
          "internalType": "address",
          "name": "newOwner",
          "type": "address"
        }
      ],
      "name": "transferOwnership",
      "outputs": [],
      "stateMutability": "nonpayable",
      "type": "function"
    },
    {
      "inputs": [],
      "name": "underlying",
      "outputs": [
        {
          "internalType": "contract IERC20",
          "name": "",
          "type": "address"
        }
      ],
      "stateMutability": "view",
      "type": "function"
    },
    {
      "inputs": [
        {
          "internalType": "uint256",
          "name": "amount",
          "type": "uint256"
        }
      ],
      "name": "withdraw",
      "outputs": [],
      "stateMutability": "nonpayable",
      "type": "function"
    }
  ],
  "transactionHash": "0x554534ba697bddc052de1393bd9e813fe0da5b88365c9a433a73a30b87cbbded",
  "args": [
    "0x727E501dDAbf9AB1888abC5042EF4d0569F0C162",
    "0x4da34f8264cb33a5c9f17081b9ef5ff6091116f4"
  ],
  "solcInputHash": "93563ad6eff3b67983722b3ff0066e11",
  "bytecode": "0x6101606040527f6e71edae12b1b97f4d1f60370fef10105fa2faae0126114a169c64845d6126c9610120526009805460ff60a01b191690553480156200004457600080fd5b5060405162003634380380620036348339810160408190526200006791620004bf565b6040516372a7ba9160e11b81526001600160a01b0383166004820152829073C10B6DAFE4D7F7c693F44C51E716166B599644Ba9063e54f75229060240160006040518083038186803b158015620000bd57600080fd5b505af4158015620000d2573d6000803e3d6000fd5b505050506040513d6000823e601f3d908101601f19168201604052620000fc9190810190620004f6565b6040516020016200010e9190620005aa565b60408051808303601f19018152828201825260018352603160f81b602084015290516372a7ba9160e11b81526001600160a01b03841660048201529091829173C10B6DAFE4D7F7c693F44C51E716166B599644Ba9063e54f75229060240160006040518083038186803b1580156200018557600080fd5b505af41580156200019a573d6000803e3d6000fd5b505050506040513d6000823e601f3d908101601f19168201604052620001c49190810190620004f6565b604051602001620001d69190620005aa565b60408051808303601f190181529082905263033b9b4f60e01b82526001600160a01b03861660048301529073C10B6DAFE4D7F7c693F44C51E716166B599644Ba9063033b9b4f9060240160006040518083038186803b1580156200023957600080fd5b505af41580156200024e573d6000803e3d6000fd5b505050506040513d6000823e601f3d908101601f19168201604052620002789190810190620004f6565b6040516020016200028a9190620005da565b60408051601f198184030181529190528151620002af906003906020850190620003fc565b508051620002c5906004906020840190620003fc565b5050825160208085019190912083518483012060c082815260e08290524660a0818152604080517f8b73c3c69bb8fe3d512ecc4cf759cc79239f7b179b0ffacaa9a75d522b39400f81890181905281830188905260608201879052608082019490945230818401528151808203909301835290930190925281519190940120919350919060805261010052505050505060601b6001600160601b0319166101405262000378620003723390565b620003aa565b600b80546001600160a01b039384166001600160a01b031991821617909155600c80549290931691161790556200068b565b600980546001600160a01b038381166001600160a01b0319831681179093556040519116919082907f8be0079c531659141344cd1fd0a4f28419497f9722a3daafe3b4186f6b6457e090600090a35050565b8280546200040a9062000638565b90600052602060002090601f0160209004810192826200042e576000855562000479565b82601f106200044957805160ff191683800117855562000479565b8280016001018555821562000479579182015b82811115620004795782518255916020019190600101906200045c565b50620004879291506200048b565b5090565b5b808211156200048757600081556001016200048c565b80516001600160a01b0381168114620004ba57600080fd5b919050565b60008060408385031215620004d2578182fd5b620004dd83620004a2565b9150620004ed60208401620004a2565b90509250929050565b60006020828403121562000508578081fd5b81516001600160401b03808211156200051f578283fd5b818401915084601f83011262000533578283fd5b81518181111562000548576200054862000675565b604051601f8201601f19908116603f0116810190838211818310171562000573576200057362000675565b816040528281528760208487010111156200058c578586fd5b6200059f83602083016020880162000605565b979650505050505050565b6514dd185ad95960d21b815260008251620005cd81600685016020870162000605565b9190910160060192915050565b607360f81b815260008251620005f881600185016020870162000605565b9190910160010192915050565b60005b838110156200062257818101518382015260200162000608565b8381111562000632576000848401525b50505050565b600181811c908216806200064d57607f821691505b602082108114156200066f57634e487b7160e01b600052602260045260246000fd5b50919050565b634e487b7160e01b600052604160045260246000fd5b60805160a05160c05160e05161010051610120516101405160601c612f3d620006f7600039600081816103d101528181611a040152611e7901526000610ffb015260006114d201526000611514015260006114f301526000611482015260006114ab0152612f3d6000f3fe608060405234801561001057600080fd5b50600436106102745760003560e01c80637ecebe0011610151578063c75ebb82116100c3578063f1127ed811610087578063f1127ed81461054c578063f21c150c14610589578063f2fde38b14610591578063f3ae2415146105a4578063fb29238b146105b7578063ffc9896b146105f657600080fd5b8063c75ebb82146104f2578063d0ebdbe714610505578063d505accf14610518578063dd62ed3e1461052b578063ede524941461053957600080fd5b8063a457c2d711610115578063a457c2d7146102ac578063a694fc3a146104b1578063a9059cbb146102ac578063ae997d70146104c4578063b711c5bc146104d7578063c3cda520146104df57600080fd5b80637ecebe001461045f5780638da5cb5b146104725780638e539e8c1461048357806395d89b41146104965780639ab24eb01461049e57600080fd5b806339509351116101ea57806366805de5116101ae57806366805de5146103c45780636f307dc3146103cc5780636fcfff45146103f357806370a082311461041b578063715018a6146104445780637776768f1461044c57600080fd5b806339509351146102ac5780633a46b1a81461036a5780634e71d92d1461037d578063587cde1e146103855780635c19a95c146103b157600080fd5b806323b872dd1161023c57806323b872dd1461030c5780632e1a7d4d1461031a578063313ce5671461032d5780633276a60f1461033c5780633644e5151461034f578063377e32e61461035757600080fd5b80630501d5561461027957806306fdde031461028e578063095ea7b3146102ac5780630ac6702a146102cf57806318160ddd146102fa575b600080fd5b61028c610287366004612cdc565b610651565b005b6102966106df565b6040516102a39190612dac565b60405180910390f35b6102bf6102ba366004612c1e565b610771565b60405190151581526020016102a3565b600c546102e2906001600160a01b031681565b6040516001600160a01b0390911681526020016102a3565b6002545b6040519081526020016102a3565b6102bf6102ba366004612b7a565b61028c610328366004612d14565b610777565b604051601281526020016102a3565b61028c61034a366004612d44565b6107a3565b6102fe610819565b61028c610365366004612b2e565b610828565b6102fe610378366004612c1e565b61085b565b61028c6108d7565b6102e2610393366004612b2e565b6001600160a01b039081166000908152600660205260409020541690565b61028c6103bf366004612b2e565b610902565b61028c61090c565b6102e27f000000000000000000000000000000000000000000000000000000000000000081565b610406610401366004612b2e565b6109a7565b60405163ffffffff90911681526020016102a3565b6102fe610429366004612b2e565b6001600160a01b031660009081526020819052604090205490565b61028c6109c9565b600b546102e2906001600160a01b031681565b6102fe61046d366004612b2e565b6109fd565b6009546001600160a01b03166102e2565b6102fe610491366004612d14565b610a1b565b610296610a77565b6102fe6104ac366004612b2e565b610a86565b61028c6104bf366004612d14565b610b1b565b61028c6104d2366004612b2e565b610c2e565b61028c610c91565b61028c6104ed366004612c47565b610e31565b6102fe610500366004612b2e565b610f67565b61028c610513366004612b2e565b610f74565b61028c610526366004612bb5565b610fa7565b6102fe6102ba366004612b48565b61028c610547366004612d65565b61110b565b61055f61055a366004612c9e565b6111ce565b60408051825163ffffffff1681526020928301516001600160e01b031692810192909252016102a3565b6102fe611260565b61028c61059f366004612b2e565b61126c565b6102bf6105b2366004612b2e565b611304565b600e54600f54601054601154601254601354604080519687526020870195909552938501929092526060840152608083015260a082015260c0016102a3565b610636610604366004612b2e565b6001600160a01b0316600090815260146020908152604080832054601583528184205460169093529220549192909190565b604080519384526020840192909252908201526060016102a3565b6009546001600160a01b031633146106845760405162461bcd60e51b815260040161067b90612ddf565b60405180910390fd5b6009805460ff60a01b1916600160a01b831515908102919091179091556040805133815260208101929092527fef4f29489278bb948f2bf4c4b43ecf63d320bd27e96bca0566354fdfbad96fb691015b60405180910390a150565b6060600380546106ee90612eae565b80601f016020809104026020016040519081016040528092919081815260200182805461071a90612eae565b80156107675780601f1061073c57610100808354040283529160200191610767565b820191906000526020600020905b81548152906001019060200180831161074a57829003601f168201915b5050505050905090565b60008080fd5b601054610797576040516350f7da1560e11b815260040160405180910390fd5b6107a08161133b565b50565b6107ac33611304565b6107c95760405163605919ad60e11b815260040160405180910390fd5b6107d4600d8261144a565b600e829055604080518281526020810184905233917fc46f77f1cc704db24b96e89a9b0a7cf01f40697fd66498005bf9a01eee48bb6491015b60405180910390a25050565b600061082361147e565b905090565b6009546001600160a01b031633146108525760405162461bcd60e51b815260040161067b90612ddf565b6107a081611538565b60004382106108ac5760405162461bcd60e51b815260206004820152601f60248201527f4552433230566f7465733a20626c6f636b206e6f7420796574206d696e656400604482015260640161067b565b6001600160a01b03831660009081526007602052604090206108ce908361159e565b90505b92915050565b6010546108f7576040516350f7da1560e11b815260040160405180910390fd5b61090033611677565b565b6107a03382611814565b6009546001600160a01b031633146109365760405162461bcd60e51b815260040161067b90612ddf565b60175460ff1661095957604051631cdde67b60e01b815260040160405180910390fd5b426011556017805461ffff191661010017905560408051338152600160208201527fd7db87a6b8aa22d17ca92ea752962946b1ee14c9c1755604a056418d3ad97d1c910160405180910390a1565b6001600160a01b0381166000908152600760205260408120546108d190611893565b6009546001600160a01b031633146109f35760405162461bcd60e51b815260040161067b90612ddf565b61090060006118fc565b6001600160a01b0381166000908152600560205260408120546108d1565b6000438210610a6c5760405162461bcd60e51b815260206004820152601f60248201527f4552433230566f7465733a20626c6f636b206e6f7420796574206d696e656400604482015260640161067b565b6108d160088361159e565b6060600480546106ee90612eae565b6001600160a01b0381166000908152600760205260408120548015610b08576001600160a01b0383166000908152600760205260409020610ac8600183612e6b565b81548110610ae657634e487b7160e01b600052603260045260246000fd5b60009182526020909120015464010000000090046001600160e01b0316610b0b565b60005b6001600160e01b03169392505050565b601054610b3b576040516350f7da1560e11b815260040160405180910390fd5b60175460ff16610b5e57604051631cdde67b60e01b815260040160405180910390fd5b80610b7c5760405163162908e360e11b815260040160405180910390fd5b610b87600d3361194e565b610b9133826119fd565b503360009081526016602052604081208054839290610bb1908490612e14565b909155505060128054829190600090610bcb908490612e14565b9091555050336000818152601460209081526040808320546016835292819020548151868152928301939093528101919091527ff556991011e831bcfac4f406d547e5e32cdd98267efab83935230d5f8d02c4469060600160405180910390a250565b6001600160a01b03811633146108525760405162461bcd60e51b815260206004820152602260248201527f43616e206f6e6c792072656e6f756e6365206d616e6167657220666f72207365604482015261363360f11b606482015260840161067b565b6009546001600160a01b03163314610cbb5760405162461bcd60e51b815260040161067b90612ddf565b600c54600b546000916001600160a01b0391821691161415610d6657601254600c546040516370a0823160e01b81523060048201526001600160a01b03909116906370a082319060240160206040518083038186803b158015610d1d57600080fd5b505afa158015610d31573d6000803e3d6000fd5b505050506040513d601f19601f82011682018060405250810190610d559190612d2c565b610d5f9190612e6b565b9050610de4565b600c546040516370a0823160e01b81523060048201526001600160a01b03909116906370a082319060240160206040518083038186803b158015610da957600080fd5b505afa158015610dbd573d6000803e3d6000fd5b505050506040513d601f19601f82011682018060405250810190610de19190612d2c565b90505b600c54610dfb906001600160a01b03163383611a3e565b60408051338152602081018390527f40a999c547e777925d554a2673d8e2a2c0788390a91a9836f59b2d893e85034891016106d4565b83421115610e815760405162461bcd60e51b815260206004820152601d60248201527f4552433230566f7465733a207369676e61747572652065787069726564000000604482015260640161067b565b604080517fe48329057bfd03d55e49b547132e39cffd9c1820ad7b9d4c5307691425d15adf60208201526001600160a01b038816918101919091526060810186905260808101859052600090610efb90610ef39060a00160405160208183030381529060405280519060200120611aa6565b858585611af4565b9050610f0681611b1c565b8614610f545760405162461bcd60e51b815260206004820152601960248201527f4552433230566f7465733a20696e76616c6964206e6f6e636500000000000000604482015260640161067b565b610f5e8188611814565b50505050505050565b60006108d1600d83611b44565b6009546001600160a01b03163314610f9e5760405162461bcd60e51b815260040161067b90612ddf565b6107a081611bff565b83421115610ff75760405162461bcd60e51b815260206004820152601d60248201527f45524332305065726d69743a206578706972656420646561646c696e65000000604482015260640161067b565b60007f00000000000000000000000000000000000000000000000000000000000000008888886110268c611b1c565b6040805160208101969096526001600160a01b0394851690860152929091166060840152608083015260a082015260c0810186905260e001604051602081830303815290604052805190602001209050600061108182611aa6565b9050600061109182878787611af4565b9050896001600160a01b0316816001600160a01b0316146110f45760405162461bcd60e51b815260206004820152601e60248201527f45524332305065726d69743a20696e76616c6964207369676e61747572650000604482015260640161067b565b6110ff8a8a8a611c67565b50505050505050505050565b6009546001600160a01b031633146111355760405162461bcd60e51b815260040161067b90612ddf565b60175460ff6101009091041615156001141561116457604051631578538d60e01b815260040160405180910390fd5b600080611174600d868686611d8b565b6017805460ff19166001179055604080518881526020810184905290810182905291935091507f81fd1d59cc9507125b21e058eb609385cb7fffe3650dc38f983aa3c777f3f7b89060600160405180910390a15050505050565b60408051808201909152600080825260208201526001600160a01b0383166000908152600760205260409020805463ffffffff841690811061122057634e487b7160e01b600052603260045260246000fd5b60009182526020918290206040805180820190915291015463ffffffff8116825264010000000090046001600160e01b0316918101919091529392505050565b6000610823600d611dd5565b6009546001600160a01b031633146112965760405162461bcd60e51b815260040161067b90612ddf565b6001600160a01b0381166112fb5760405162461bcd60e51b815260206004820152602660248201527f4f776e61626c653a206e6577206f776e657220697320746865207a65726f206160448201526564647265737360d01b606482015260840161067b565b6107a0816118fc565b6001600160a01b0381166000908152600a602052604081205460ff16806108d15750506009546001600160a01b0391821691161490565b806000198114156113585750336000908152601660205260409020545b3360009081526016602052604090205481111561139d57336000908152601660205260409081902054905163cebd519360e01b8152600481019190915260240161067b565b6113a8600d3361194e565b33600090815260166020526040812080548392906113c7908490612e6b565b9091555050601280548291906000906113e1908490612e6b565b909155506113f190503382611e68565b50336000818152601460209081526040808320546016835292819020548151868152928301939093528101919091527f02f25270a4d87bea75db541cdfe559334a275b4a233520ed6c0a2429667cca949060600161080d565b61145382611dd5565b6002830155426006830181905560038301819055611472908290612e14565b82600401819055505050565b60007f00000000000000000000000000000000000000000000000000000000000000004614156114cd57507f000000000000000000000000000000000000000000000000000000000000000090565b6108237f00000000000000000000000000000000000000000000000000000000000000007f00000000000000000000000000000000000000000000000000000000000000007f0000000000000000000000000000000000000000000000000000000000000000611e9f565b61154181611304565b156107a0576001600160a01b0381166000818152600a6020908152604091829020805460ff191690558151338152908101929092527f142c2a791096690a19ea18712757698bee1e23180c084e221726a4a96e027a7b91016106d4565b8154600090815b818110156116105760006115b98284611ee9565b9050848682815481106115dc57634e487b7160e01b600052603260045260246000fd5b60009182526020909120015463ffffffff1611156115fc5780925061160a565b611607816001612e14565b91505b506115a5565b81156116625784611622600184612e6b565b8154811061164057634e487b7160e01b600052603260045260246000fd5b60009182526020909120015464010000000090046001600160e01b0316611665565b60005b6001600160e01b031695945050505050565b600954600160a01b900460ff161515600114156116a75760405163358bc0db60e11b815260040160405180910390fd5b60006116b4600d83611b44565b9050806116d457604051632706c9e160e21b815260040160405180910390fd5b6001600160a01b0382166000908152601560205260408120556116f7600d611dd5565b6001600160a01b03808416600090815260146020526040902091909155600c5461172391168383611a3e565b600c546040516370a0823160e01b81523060048201526000916001600160a01b0316906370a082319060240160206040518083038186803b15801561176757600080fd5b505afa15801561177b573d6000803e3d6000fd5b505050506040513d601f19601f8201168201806040525081019061179f9190612d2c565b600b54600c549192506001600160a01b03918216911614156117cb576012546117c89082612e6b565b90505b60408051838152602081018390526001600160a01b038516917f34fcbac0073d7c3d388e51312faf357774904998eeb8fca628b9e6f65ee1cbf7910160405180910390a2505050565b6001600160a01b038281166000818152600660208181526040808420805485845282862054949093528787166001600160a01b03198416811790915590519190951694919391928592917f3134e8a2e6d97e929a7e54011ea5485d7d196dd5f0ba4d4ef95803e8e3fc257f9190a461188d828483611f04565b50505050565b600063ffffffff8211156118f85760405162461bcd60e51b815260206004820152602660248201527f53616665436173743a2076616c756520646f65736e27742066697420696e203360448201526532206269747360d01b606482015260840161067b565b5090565b600980546001600160a01b038381166001600160a01b0319831681179093556040519116919082907f8be0079c531659141344cd1fd0a4f28419497f9722a3daafe3b4186f6b6457e090600090a35050565b6119588282611b44565b6001600160a01b038216600090815260088401602052604090205561197c82611dd5565b6001600160a01b038216600090815260078401602052604090208190556002830155600482015442106119b35781600401546119b5565b425b60068301556002820154600583015460405133927f28a694a51ab9a1b640ac10c5bff2e688efea56c330c01ac8eb9318aa2cd09fdf9261080d92918252602082015260400190565b6000611a2b7f0000000000000000000000000000000000000000000000000000000000000000333085612041565b611a358383612079565b50600192915050565b6040516001600160a01b038316602482015260448101829052611aa190849063a9059cbb60e01b906064015b60408051601f198184030181529190526020810180516001600160e01b03166001600160e01b031990931692909217909152612087565b505050565b60006108d1611ab361147e565b8360405161190160f01b6020820152602281018390526042810182905260009060620160405160208183030381529060405280519060200120905092915050565b6000806000611b0587878787612159565b91509150611b1281612243565b5095945050505050565b6001600160a01b03811660009081526005602052604090208054600181018255905b50919050565b6001600160a01b0381166000908152600783016020526040812054611b6b575060006108d1565b6001600160a01b0382166000908152600784016020526040812054611b8f85611dd5565b611b999190612e6b565b6001600160a01b0384166000908152600986016020526040812054919250633b9aca00611bc68484612e4c565b611bd09190612e2c565b6001600160a01b0386166000908152600888016020526040902054611bf59190612e14565b9695505050505050565b611c0881611304565b6107a0576001600160a01b0381166000818152600a6020908152604091829020805460ff191660011790558151338152908101929092527f8d235c6c97ff1b07a41b6b8ac6ea040a6a6b411b20a0f02f02946fa45590bcfc91016106d4565b6001600160a01b038316611cc95760405162461bcd60e51b8152602060048201526024808201527f45524332303a20617070726f76652066726f6d20746865207a65726f206164646044820152637265737360e01b606482015260840161067b565b6001600160a01b038216611d2a5760405162461bcd60e51b815260206004820152602260248201527f45524332303a20617070726f766520746f20746865207a65726f206164647265604482015261737360f01b606482015260840161067b565b6001600160a01b0383811660008181526001602090815260408083209487168084529482529182902085905590518481527f8c5be1e5ebec7d5bd14f71427d1e84f3dd0314c0f7b2291e5b200ac8c7c3b925910160405180910390a3505050565b6001840183905560038401829055600080611da68385612e14565b6004870181905560068701859055670de0b6b3a764000060028801556003870154925090505b94509492505050565b60008082600401544210611ded578260040154611def565b425b90506000836006015482611e039190612e6b565b600585015490915081611e1b57505050506002015490565b80611e2b57505050506002015490565b600081866001015484611e3e9190612e4c565b611e4c90633b9aca00612e4c565b611e569190612e2c565b9050808660020154611bf59190612e14565b6000611e743383612444565b611a357f00000000000000000000000000000000000000000000000000000000000000008484611a3e565b6040805160208101859052908101839052606081018290524660808201523060a082015260009060c0016040516020818303038152906040528051906020012090505b9392505050565b6000611ef86002848418612e2c565b6108ce90848416612e14565b816001600160a01b0316836001600160a01b031614158015611f265750600081115b15611aa1576001600160a01b03831615611fb4576001600160a01b03831660009081526007602052604081208190611f619061244e8561245a565b91509150846001600160a01b03167fdec2bacdd2f05b59de34da9b523dff8be42e5e38e818c82fdb0bae774387a7248383604051611fa9929190918252602082015260400190565b60405180910390a250505b6001600160a01b03821615611aa1576001600160a01b03821660009081526007602052604081208190611fea906125fd8561245a565b91509150836001600160a01b03167fdec2bacdd2f05b59de34da9b523dff8be42e5e38e818c82fdb0bae774387a7248383604051612032929190918252602082015260400190565b60405180910390a25050505050565b6040516001600160a01b038085166024830152831660448201526064810182905261188d9085906323b872dd60e01b90608401611a6a565b6120838282612609565b5050565b60006120dc826040518060400160405280602081526020017f5361666545524332303a206c6f772d6c6576656c2063616c6c206661696c6564815250856001600160a01b03166126939092919063ffffffff16565b805190915015611aa157808060200190518101906120fa9190612cf8565b611aa15760405162461bcd60e51b815260206004820152602a60248201527f5361666545524332303a204552433230206f7065726174696f6e20646964206e6044820152691bdd081cdd58d8d9595960b21b606482015260840161067b565b6000807f7fffffffffffffffffffffffffffffff5d576e7357a4501ddfe92f46681b20a08311156121905750600090506003611dcc565b8460ff16601b141580156121a857508460ff16601c14155b156121b95750600090506004611dcc565b6040805160008082526020820180845289905260ff881692820192909252606081018690526080810185905260019060a0016020604051602081039080840390855afa15801561220d573d6000803e3d6000fd5b5050604051601f1901519150506001600160a01b03811661223657600060019250925050611dcc565b9660009650945050505050565b600081600481111561226557634e487b7160e01b600052602160045260246000fd5b141561226e5750565b600181600481111561229057634e487b7160e01b600052602160045260246000fd5b14156122de5760405162461bcd60e51b815260206004820152601860248201527f45434453413a20696e76616c6964207369676e61747572650000000000000000604482015260640161067b565b600281600481111561230057634e487b7160e01b600052602160045260246000fd5b141561234e5760405162461bcd60e51b815260206004820152601f60248201527f45434453413a20696e76616c6964207369676e6174757265206c656e67746800604482015260640161067b565b600381600481111561237057634e487b7160e01b600052602160045260246000fd5b14156123c95760405162461bcd60e51b815260206004820152602260248201527f45434453413a20696e76616c6964207369676e6174757265202773272076616c604482015261756560f01b606482015260840161067b565b60048160048111156123eb57634e487b7160e01b600052602160045260246000fd5b14156107a05760405162461bcd60e51b815260206004820152602260248201527f45434453413a20696e76616c6964207369676e6174757265202776272076616c604482015261756560f01b606482015260840161067b565b61208382826126aa565b60006108ce8284612e6b565b8254600090819080156124b35785612473600183612e6b565b8154811061249157634e487b7160e01b600052603260045260246000fd5b60009182526020909120015464010000000090046001600160e01b03166124b6565b60005b6001600160e01b031692506124cf83858763ffffffff16565b915060008111801561251b575043866124e9600184612e6b565b8154811061250757634e487b7160e01b600052603260045260246000fd5b60009182526020909120015463ffffffff16145b1561258957612529826126c2565b86612535600184612e6b565b8154811061255357634e487b7160e01b600052603260045260246000fd5b9060005260206000200160000160046101000a8154816001600160e01b0302191690836001600160e01b031602179055506125f4565b85604051806040016040528061259e43611893565b63ffffffff1681526020016125b2856126c2565b6001600160e01b0390811690915282546001810184556000938452602093849020835194909301519091166401000000000263ffffffff909316929092179101555b50935093915050565b60006108ce8284612e14565b612613828261272b565b6002546001600160e01b0310156126855760405162461bcd60e51b815260206004820152603060248201527f4552433230566f7465733a20746f74616c20737570706c79207269736b73206f60448201526f766572666c6f77696e6720766f74657360801b606482015260840161067b565b61188d60086125fd8361245a565b60606126a28484600085612812565b949350505050565b6126b4828261293a565b61188d600861244e8361245a565b60006001600160e01b038211156118f85760405162461bcd60e51b815260206004820152602760248201527f53616665436173743a2076616c756520646f65736e27742066697420696e20326044820152663234206269747360c81b606482015260840161067b565b6001600160a01b0382166127815760405162461bcd60e51b815260206004820152601f60248201527f45524332303a206d696e7420746f20746865207a65726f206164647265737300604482015260640161067b565b80600260008282546127939190612e14565b90915550506001600160a01b038216600090815260208190526040812080548392906127c0908490612e14565b90915550506040518181526001600160a01b038316906000907fddf252ad1be2c89b69c2b068fc378daa952ba7f163c4a11628f55a4df523b3ef9060200160405180910390a361208360008383612a8b565b6060824710156128735760405162461bcd60e51b815260206004820152602660248201527f416464726573733a20696e73756666696369656e742062616c616e636520666f6044820152651c8818d85b1b60d21b606482015260840161067b565b843b6128c15760405162461bcd60e51b815260206004820152601d60248201527f416464726573733a2063616c6c20746f206e6f6e2d636f6e7472616374000000604482015260640161067b565b600080866001600160a01b031685876040516128dd9190612d90565b60006040518083038185875af1925050503d806000811461291a576040519150601f19603f3d011682016040523d82523d6000602084013e61291f565b606091505b509150915061292f828286612a96565b979650505050505050565b6001600160a01b03821661299a5760405162461bcd60e51b815260206004820152602160248201527f45524332303a206275726e2066726f6d20746865207a65726f206164647265736044820152607360f81b606482015260840161067b565b6001600160a01b03821660009081526020819052604090205481811015612a0e5760405162461bcd60e51b815260206004820152602260248201527f45524332303a206275726e20616d6f756e7420657863656564732062616c616e604482015261636560f01b606482015260840161067b565b6001600160a01b0383166000908152602081905260408120838303905560028054849290612a3d908490612e6b565b90915550506040518281526000906001600160a01b038516907fddf252ad1be2c89b69c2b068fc378daa952ba7f163c4a11628f55a4df523b3ef9060200160405180910390a3611aa1836000845b611aa1838383612acf565b60608315612aa5575081611ee2565b825115612ab55782518084602001fd5b8160405162461bcd60e51b815260040161067b9190612dac565b6001600160a01b03838116600090815260066020526040808220548584168352912054611aa192918216911683611f04565b80356001600160a01b0381168114612b1857600080fd5b919050565b803560ff81168114612b1857600080fd5b600060208284031215612b3f578081fd5b6108ce82612b01565b60008060408385031215612b5a578081fd5b612b6383612b01565b9150612b7160208401612b01565b90509250929050565b600080600060608486031215612b8e578081fd5b612b9784612b01565b9250612ba560208501612b01565b9150604084013590509250925092565b600080600080600080600060e0888a031215612bcf578283fd5b612bd888612b01565b9650612be660208901612b01565b95506040880135945060608801359350612c0260808901612b1d565b925060a0880135915060c0880135905092959891949750929550565b60008060408385031215612c30578182fd5b612c3983612b01565b946020939093013593505050565b60008060008060008060c08789031215612c5f578182fd5b612c6887612b01565b95506020870135945060408701359350612c8460608801612b1d565b92506080870135915060a087013590509295509295509295565b60008060408385031215612cb0578182fd5b612cb983612b01565b9150602083013563ffffffff81168114612cd1578182fd5b809150509250929050565b600060208284031215612ced578081fd5b8135611ee281612ef9565b600060208284031215612d09578081fd5b8151611ee281612ef9565b600060208284031215612d25578081fd5b5035919050565b600060208284031215612d3d578081fd5b5051919050565b60008060408385031215612d56578182fd5b50508035926020909101359150565b600080600060608486031215612d79578283fd5b505081359360208301359350604090920135919050565b60008251612da2818460208701612e82565b9190910192915050565b6020815260008251806020840152612dcb816040850160208701612e82565b601f01601f19169190910160400192915050565b6020808252818101527f4f776e61626c653a2063616c6c6572206973206e6f7420746865206f776e6572604082015260600190565b60008219821115612e2757612e27612ee3565b500190565b600082612e4757634e487b7160e01b81526012600452602481fd5b500490565b6000816000190483118215151615612e6657612e66612ee3565b500290565b600082821015612e7d57612e7d612ee3565b500390565b60005b83811015612e9d578181015183820152602001612e85565b8381111561188d5750506000910152565b600181811c90821680612ec257607f821691505b60208210811415611b3e57634e487b7160e01b600052602260045260246000fd5b634e487b7160e01b600052601160045260246000fd5b80151581146107a057600080fdfea2646970667358221220f4d88d9bf30a76d9c1906216e6e1165f97b2464ecbe920c26d9e1649df857cb264736f6c63430008040033",
  "libraries": {
    "ERC20Metadata": "0xC10B6DAFE4D7F7c693F44C51E716166B599644Ba"
  },
  "devdoc": {
    "author": "Elysia",
    "kind": "dev",
    "methods": {
      "DOMAIN_SEPARATOR()": {
        "details": "See {IERC20Permit-DOMAIN_SEPARATOR}."
      },
      "balanceOf(address)": {
        "details": "See {IERC20-balanceOf}."
      },
      "checkpoints(address,uint32)": {
        "details": "Get the `pos`-th checkpoint for `account`."
      },
      "decimals()": {
        "details": "Returns the number of decimals used to get its user representation. For example, if `decimals` equals `2`, a balance of `505` tokens should be displayed to a user as `5.05` (`505 / 10 ** 2`). Tokens usually opt for a value of 18, imitating the relationship between Ether and Wei. This is the value {ERC20} uses, unless this function is overridden; NOTE: This information is only used for _display_ purposes: it in no way affects any of the arithmetic of the contract, including {IERC20-balanceOf} and {IERC20-transfer}."
      },
      "delegate(address)": {
        "details": "Delegate votes from the sender to `delegatee`."
      },
      "delegateBySig(address,uint256,uint256,uint8,bytes32,bytes32)": {
        "details": "Delegates votes from signer to `delegatee`"
      },
      "delegates(address)": {
        "details": "Get the address `account` is currently delegating to."
      },
      "getPastTotalSupply(uint256)": {
        "details": "Retrieve the `totalSupply` at the end of `blockNumber`. Note, this value is the sum of all balances. It is but NOT the sum of all the delegated votes! Requirements: - `blockNumber` must have been already mined"
      },
      "getPastVotes(address,uint256)": {
        "details": "Retrieve the number of votes for `account` at the end of `blockNumber`. Requirements: - `blockNumber` must have been already mined"
      },
      "getPoolData()": {
        "returns": {
          "endTimestamp": "The end timestamp of the round",
          "lastUpdateTimestamp": "The last update timestamp of the round",
          "rewardIndex": "The reward index of the round",
          "rewardPerSecond": "The total reward accrued per second in the round",
          "startTimestamp": "The start timestamp of the round",
          "totalPrincipal": "The total staked amount of the round"
        }
      },
      "getUserData(address)": {
        "params": {
          "user": "The user address"
        }
      },
      "getUserReward(address)": {
        "params": {
          "user": "The user address"
        }
      },
      "getVotes(address)": {
        "details": "Gets the current votes balance for `account`"
      },
      "initNewPool(uint256,uint256,uint256)": {
        "params": {
          "duration": "The duration of the initiated round",
          "rewardPerSecond": "The total accrued reward per second in new round",
          "startTimestamp": "The start timestamp of initiated round"
        }
      },
      "name()": {
        "details": "Returns the name of the token."
      },
      "nonces(address)": {
        "details": "See {IERC20Permit-nonces}."
      },
      "numCheckpoints(address)": {
        "details": "Get number of checkpoints for `account`."
      },
      "owner()": {
        "details": "Returns the address of the current owner."
      },
      "permit(address,address,uint256,uint256,uint8,bytes32,bytes32)": {
        "details": "See {IERC20Permit-permit}."
      },
      "renounceOwnership()": {
        "details": "Leaves the contract without owner. It will not be possible to call `onlyOwner` functions anymore. Can only be called by the current owner. NOTE: Renouncing ownership will leave the contract without an owner, thereby removing any functionality that is only available to the owner."
      },
      "stake(uint256)": {
        "params": {
          "amount": "Amount to stake."
        }
      },
      "symbol()": {
        "details": "Returns the symbol of the token, usually a shorter version of the name."
      },
      "totalSupply()": {
        "details": "See {IERC20-totalSupply}."
      },
      "transferOwnership(address)": {
        "details": "Transfers ownership of the contract to a new account (`newOwner`). Can only be called by the current owner."
      },
      "withdraw(uint256)": {
        "params": {
          "amount": "Amount to withdraw"
        }
      }
    },
    "title": "Elyfi StakingPool contract",
    "version": 1
  },
  "userdoc": {
    "kind": "user",
    "methods": {
      "allowance(address,address)": {
        "notice": "Allownace not supported"
      },
      "approve(address,uint256)": {
        "notice": "Approval not supported"
      },
      "claim()": {
        "notice": "Transfer accrued reward to msg.sender. User accrued reward will be reset and user reward index will be set to the current reward index."
      },
      "decreaseAllowance(address,uint256)": {
        "notice": "Allownace not supported"
      },
      "getPoolData()": {
        "notice": "Returns the state and data of the round"
      },
      "getRewardIndex()": {
        "notice": "Returns reward index of the round"
      },
      "getUserData(address)": {
        "notice": "Returns the state and data of the user"
      },
      "getUserReward(address)": {
        "notice": "Returns user accrued reward index of the round"
      },
      "increaseAllowance(address,uint256)": {
        "notice": "Allownace not supported"
      },
      "initNewPool(uint256,uint256,uint256)": {
        "notice": "Init the new round. After the round closed, staking is not allowed."
      },
      "stake(uint256)": {
        "notice": "Stake the amount of staking asset to pool contract and update data."
      },
      "transfer(address,uint256)": {
        "notice": "Transfer not supported"
      },
      "transferFrom(address,address,uint256)": {
        "notice": "Transfer not supported"
      },
      "withdraw(uint256)": {
        "notice": "Withdraw the amount of principal from the pool contract and update data"
      }
    },
    "notice": "Users can stake their asset and earn reward for their staking. The reward calculation is based on the reward index and user balance. The amount of reward index change is inversely proportional to the total amount of supply. Accrued rewards can be obtained by multiplying the difference between the user index and the current index by the user balance. User index and the pool index is updated and aligned with in the staking and withdrawing action.",
    "version": 1
  },
  "storageLayout": {
    "storage": [
      {
        "astId": 119,
        "contract": "contracts/StakingPoolV2.sol:StakingPoolV2",
        "label": "_balances",
        "offset": 0,
        "slot": "0",
        "type": "t_mapping(t_address,t_uint256)"
      },
      {
        "astId": 125,
        "contract": "contracts/StakingPoolV2.sol:StakingPoolV2",
        "label": "_allowances",
        "offset": 0,
        "slot": "1",
        "type": "t_mapping(t_address,t_mapping(t_address,t_uint256))"
      },
      {
        "astId": 127,
        "contract": "contracts/StakingPoolV2.sol:StakingPoolV2",
        "label": "_totalSupply",
        "offset": 0,
        "slot": "2",
        "type": "t_uint256"
      },
      {
        "astId": 129,
        "contract": "contracts/StakingPoolV2.sol:StakingPoolV2",
        "label": "_name",
        "offset": 0,
        "slot": "3",
        "type": "t_string_storage"
      },
      {
        "astId": 131,
        "contract": "contracts/StakingPoolV2.sol:StakingPoolV2",
        "label": "_symbol",
        "offset": 0,
        "slot": "4",
        "type": "t_string_storage"
      },
      {
        "astId": 1421,
        "contract": "contracts/StakingPoolV2.sol:StakingPoolV2",
        "label": "_nonces",
        "offset": 0,
        "slot": "5",
        "type": "t_mapping(t_address,t_struct(Counter)2152_storage)"
      },
      {
        "astId": 750,
        "contract": "contracts/StakingPoolV2.sol:StakingPoolV2",
        "label": "_delegates",
        "offset": 0,
        "slot": "6",
        "type": "t_mapping(t_address,t_address)"
      },
      {
        "astId": 756,
        "contract": "contracts/StakingPoolV2.sol:StakingPoolV2",
        "label": "_checkpoints",
        "offset": 0,
        "slot": "7",
        "type": "t_mapping(t_address,t_array(t_struct(Checkpoint)741_storage)dyn_storage)"
      },
      {
        "astId": 760,
        "contract": "contracts/StakingPoolV2.sol:StakingPoolV2",
        "label": "_totalSupplyCheckpoints",
        "offset": 0,
        "slot": "8",
        "type": "t_array(t_struct(Checkpoint)741_storage)dyn_storage"
      },
      {
        "astId": 7,
        "contract": "contracts/StakingPoolV2.sol:StakingPoolV2",
        "label": "_owner",
        "offset": 0,
        "slot": "9",
        "type": "t_address"
      },
      {
        "astId": 3482,
        "contract": "contracts/StakingPoolV2.sol:StakingPoolV2",
        "label": "emergencyStop",
        "offset": 20,
        "slot": "9",
        "type": "t_bool"
      },
      {
        "astId": 3486,
        "contract": "contracts/StakingPoolV2.sol:StakingPoolV2",
        "label": "managers",
        "offset": 0,
        "slot": "10",
        "type": "t_mapping(t_address,t_bool)"
      },
      {
        "astId": 3489,
        "contract": "contracts/StakingPoolV2.sol:StakingPoolV2",
        "label": "stakingAsset",
        "offset": 0,
        "slot": "11",
        "type": "t_contract(IERC20)727"
      },
      {
        "astId": 3492,
        "contract": "contracts/StakingPoolV2.sol:StakingPoolV2",
        "label": "rewardAsset",
        "offset": 0,
        "slot": "12",
        "type": "t_contract(IERC20)727"
      },
      {
        "astId": 3495,
        "contract": "contracts/StakingPoolV2.sol:StakingPoolV2",
        "label": "_poolData",
        "offset": 0,
        "slot": "13",
        "type": "t_struct(PoolData)3479_storage"
      }
    ],
    "types": {
      "t_address": {
        "encoding": "inplace",
        "label": "address",
        "numberOfBytes": "20"
      },
      "t_array(t_struct(Checkpoint)741_storage)dyn_storage": {
        "base": "t_struct(Checkpoint)741_storage",
        "encoding": "dynamic_array",
        "label": "struct ERC20Votes.Checkpoint[]",
        "numberOfBytes": "32"
      },
      "t_bool": {
        "encoding": "inplace",
        "label": "bool",
        "numberOfBytes": "1"
      },
      "t_contract(IERC20)727": {
        "encoding": "inplace",
        "label": "contract IERC20",
        "numberOfBytes": "20"
      },
      "t_mapping(t_address,t_address)": {
        "encoding": "mapping",
        "key": "t_address",
        "label": "mapping(address => address)",
        "numberOfBytes": "32",
        "value": "t_address"
      },
      "t_mapping(t_address,t_array(t_struct(Checkpoint)741_storage)dyn_storage)": {
        "encoding": "mapping",
        "key": "t_address",
        "label": "mapping(address => struct ERC20Votes.Checkpoint[])",
        "numberOfBytes": "32",
        "value": "t_array(t_struct(Checkpoint)741_storage)dyn_storage"
      },
      "t_mapping(t_address,t_bool)": {
        "encoding": "mapping",
        "key": "t_address",
        "label": "mapping(address => bool)",
        "numberOfBytes": "32",
        "value": "t_bool"
      },
      "t_mapping(t_address,t_mapping(t_address,t_uint256))": {
        "encoding": "mapping",
        "key": "t_address",
        "label": "mapping(address => mapping(address => uint256))",
        "numberOfBytes": "32",
        "value": "t_mapping(t_address,t_uint256)"
      },
      "t_mapping(t_address,t_struct(Counter)2152_storage)": {
        "encoding": "mapping",
        "key": "t_address",
        "label": "mapping(address => struct Counters.Counter)",
        "numberOfBytes": "32",
        "value": "t_struct(Counter)2152_storage"
      },
      "t_mapping(t_address,t_uint256)": {
        "encoding": "mapping",
        "key": "t_address",
        "label": "mapping(address => uint256)",
        "numberOfBytes": "32",
        "value": "t_uint256"
      },
      "t_string_storage": {
        "encoding": "bytes",
        "label": "string",
        "numberOfBytes": "32"
      },
      "t_struct(Checkpoint)741_storage": {
        "encoding": "inplace",
        "label": "struct ERC20Votes.Checkpoint",
        "members": [
          {
            "astId": 738,
            "contract": "contracts/StakingPoolV2.sol:StakingPoolV2",
            "label": "fromBlock",
            "offset": 0,
            "slot": "0",
            "type": "t_uint32"
          },
          {
            "astId": 740,
            "contract": "contracts/StakingPoolV2.sol:StakingPoolV2",
            "label": "votes",
            "offset": 4,
            "slot": "0",
            "type": "t_uint224"
          }
        ],
        "numberOfBytes": "32"
      },
      "t_struct(Counter)2152_storage": {
        "encoding": "inplace",
        "label": "struct Counters.Counter",
        "members": [
          {
            "astId": 2151,
            "contract": "contracts/StakingPoolV2.sol:StakingPoolV2",
            "label": "_value",
            "offset": 0,
            "slot": "0",
            "type": "t_uint256"
          }
        ],
        "numberOfBytes": "32"
      },
      "t_struct(PoolData)3479_storage": {
        "encoding": "inplace",
        "label": "struct StakingPoolV2.PoolData",
        "members": [
          {
            "astId": 3450,
            "contract": "contracts/StakingPoolV2.sol:StakingPoolV2",
            "label": "duration",
            "offset": 0,
            "slot": "0",
            "type": "t_uint256"
          },
          {
            "astId": 3452,
            "contract": "contracts/StakingPoolV2.sol:StakingPoolV2",
            "label": "rewardPerSecond",
            "offset": 0,
            "slot": "1",
            "type": "t_uint256"
          },
          {
            "astId": 3454,
            "contract": "contracts/StakingPoolV2.sol:StakingPoolV2",
            "label": "rewardIndex",
            "offset": 0,
            "slot": "2",
            "type": "t_uint256"
          },
          {
            "astId": 3456,
            "contract": "contracts/StakingPoolV2.sol:StakingPoolV2",
            "label": "startTimestamp",
            "offset": 0,
            "slot": "3",
            "type": "t_uint256"
          },
          {
            "astId": 3458,
            "contract": "contracts/StakingPoolV2.sol:StakingPoolV2",
            "label": "endTimestamp",
            "offset": 0,
            "slot": "4",
            "type": "t_uint256"
          },
          {
            "astId": 3460,
            "contract": "contracts/StakingPoolV2.sol:StakingPoolV2",
            "label": "totalPrincipal",
            "offset": 0,
            "slot": "5",
            "type": "t_uint256"
          },
          {
            "astId": 3462,
            "contract": "contracts/StakingPoolV2.sol:StakingPoolV2",
            "label": "lastUpdateTimestamp",
            "offset": 0,
            "slot": "6",
            "type": "t_uint256"
          },
          {
            "astId": 3466,
            "contract": "contracts/StakingPoolV2.sol:StakingPoolV2",
            "label": "userIndex",
            "offset": 0,
            "slot": "7",
            "type": "t_mapping(t_address,t_uint256)"
          },
          {
            "astId": 3470,
            "contract": "contracts/StakingPoolV2.sol:StakingPoolV2",
            "label": "userReward",
            "offset": 0,
            "slot": "8",
            "type": "t_mapping(t_address,t_uint256)"
          },
          {
            "astId": 3474,
            "contract": "contracts/StakingPoolV2.sol:StakingPoolV2",
            "label": "userPrincipal",
            "offset": 0,
            "slot": "9",
            "type": "t_mapping(t_address,t_uint256)"
          },
          {
            "astId": 3476,
            "contract": "contracts/StakingPoolV2.sol:StakingPoolV2",
            "label": "isOpened",
            "offset": 0,
            "slot": "10",
            "type": "t_bool"
          },
          {
            "astId": 3478,
            "contract": "contracts/StakingPoolV2.sol:StakingPoolV2",
            "label": "isFinished",
            "offset": 1,
            "slot": "10",
            "type": "t_bool"
          }
        ],
        "numberOfBytes": "352"
      },
      "t_uint224": {
        "encoding": "inplace",
        "label": "uint224",
        "numberOfBytes": "28"
      },
      "t_uint256": {
        "encoding": "inplace",
        "label": "uint256",
        "numberOfBytes": "32"
      },
      "t_uint32": {
        "encoding": "inplace",
        "label": "uint32",
        "numberOfBytes": "4"
      }
    }
  }
}